:100000000C945D000C9485000C9485000C94850084
:100010000C9485000C9485000C9485000C9485004C
:100020000C9485000C9485000C9485000C9485003C
:100030000C9485000C9485000C9485000C9485002C
:100040000C94DD020C9485000C944D030C94270352
:100050000C9485000C9485000C9485000C9485000C
:100060000C9485000C94850000000008000201003B
:100070000003040700000000000000000102040863
:100080001020408001020408102001020408102002
:1000900000000000240027002A00000000002500C6
:1000A00028002B00040404040404040402020202D5
:1000B00002020303030303037F0311241FBECFEFD8
:1000C000D8E0DEBFCDBF11E0A0E0B1E0E4ECF8E1A4
:1000D00002C005900D92A631B107D9F722E0A6E142
:1000E000B1E001C01D92A730B207E1F710E0CDE505
:1000F000D0E004C02197FE010E941C0ACC35D10734
:10010000C9F70E94BC040C94600C0C940000062EED
:10011000000C770B9B012C553F4FF9014491E42FC4
:10012000F0E0EE0FFF1FE656FF4FA591B491AC0132
:10013000440F551F44545E4FFA01EF5BFF4FB183EC
:10014000A083F9012491E22FF0E0EE0FFF1FE057AA
:10015000FF4FA591B4914B5B5F4FFA01B183A08330
:1001600064587F4FFB016491FC01EB5FFD4F60839E
:1001700080819C91892B8C930895CF92DF92EF928E
:10018000FF928091FB019091FC01892B09F042C004
:10019000C090ED01D090EE01E090EF01F090F00101
:1001A0008091F5019091F601892B51F020E030E02B
:1001B00040E251E4C701B6010E948F0A87FF2AC0BE
:1001C000A701960160E074E284E799E40E94940A32
:1001D0000E940D0B6093BC017093BD018093BE0122
:1001E0009093BF014091E1015091E2016091E301E0
:1001F0007091E4018091DD019091DE01A091DF0119
:10020000B091E00184179507A607B70744F481E091
:100210008093E601FF90EF90DF90CF9008958FEFED
:10022000F7CF90E0FC01E859FF4F2491FC01E4581E
:10023000FF4F3491FC01EC55FF4FE491EE23C9F0E0
:10024000222339F0233001F1A8F4213019F12230B2
:1002500029F1F0E0EE0FFF1FE656FF4FA591B49194
:100260008FB7F894EC91611126C030953E233C93F2
:100270008FBF08952730A9F02830C9F0243049F7FE
:10028000809180008F7D03C0809180008F77809364
:100290008000DFCF84B58F7784BDDBCF84B58F7DC1
:1002A000FBCF8091B0008F778093B000D2CF809148
:1002B000B0008F7DF9CF3E2BDACF3FB7F894809115
:1002C0001B0190911C01A0911D01B0911E0126B54A
:1002D000A89B05C02F3F19F00196A11DB11D3FBF7E
:1002E000BA2FA92F982F8827BC01CD01620F711D4D
:1002F000811D911D42E0660F771F881F991F4A9547
:10030000D1F70895AF92BF92CF92DF92EF92FF9212
:100310000F931F93CF93DF936C017B018B01040F2D
:10032000151FEB015E01AE18BF08C017D10759F0C9
:100330006991D601ED91FC910190F081E02DC6010B
:100340000995892B79F7C501DF91CF911F910F9105
:10035000FF90EF90DF90CF90BF90AF900895FC0199
:10036000538D448D252F30E0842F90E0821B930B1A
:10037000541710F0CF96089501970895FC01918DC0
:10038000828D981761F0A28DAE0FBF2FB11D5D96C3
:100390008C91928D9F5F9F73928F90E008958FEF65
:1003A0009FEF0895FC01918D828D981731F0828D19
:1003B000E80FF11D858D90E008958FEF9FEF089570
:1003C000FC01918D228D892F90E0805C9F4F821BD4
:1003D00091098F73992708958FE191E00E94E001C0
:1003E00021E0892B09F420E0822F089580E090E03D
:1003F000892B29F00E94EC0181110C9400000895D2
:10040000FC01A48DA80FB92FB11DA35ABF4F2C9189
:10041000848D90E001968F739927848FA689B78980
:100420002C93A089B1898C91837080648C93938D77
:10043000848D981306C00288F389E02D80818F7D1A
:1004400080830895EF92FF920F931F93CF93DF93D2
:10045000EC0181E0888F9B8D8C8D98131AC0E88900
:10046000F989808185FF15C09FB7F894EE89FF89CF
:100470006083E889F98980818370806480839FBF6D
:1004800081E090E0DF91CF911F910F91FF90EF906D
:100490000895F62E0B8D10E00F5F1F4F0F7311277D
:1004A000E02E8C8D8E110CC00FB607FCFACFE889B8
:1004B000F989808185FFF5CFCE010E940002F1CF3E
:1004C000EB8DEC0FFD2FF11DE35AFF4FF0829FB72C
:1004D000F8940B8FEA89FB8980818062CFCFCF931C
:1004E000DF93EC01888D8823B9F0AA89BB89E8895C
:1004F000F9898C9185FD03C0808186FD0DC00FB602
:1005000007FCF7CF8C9185FFF2CF808185FFEDCF7F
:10051000CE010E940002E9CFDF91CF9108958F9222
:100520009F92AF92BF920F931F93CF93DF93CDB75C
:10053000DEB7A1970FB6F894DEBF0FBECDBF19A2EC
:10054000423008F44AE08E010F5D1F4F842E912C3B
:10055000B12CA12CA50194010E94DB09E62FB90161
:10056000CA01EA3044F5E05DD801EE938D01232BFA
:10057000242B252B79F790E080E0109769F0FD019E
:1005800001900020E9F73197AF014A1B5B0BBD01D9
:100590008FE191E00E948201A1960FB6F894DEBF30
:1005A0000FBECDBFDF91CF911F910F91BF90AF9044
:1005B0009F908F900895E95CD7CF1F920F920FB64E
:1005C0000F9211242F933F938F939F93AF93BF93D9
:1005D0008091170190911801A0911901B0911A0111
:1005E0003091160123E0230F2D3758F50196A11DF8
:1005F000B11D209316018093170190931801A093C9
:100600001901B0931A0180911B0190911C01A091D6
:100610001D01B0911E010196A11DB11D80931B010A
:1006200090931C01A0931D01B0931E01BF91AF9147
:100630009F918F913F912F910F900FBE0F901F9020
:10064000189526E8230F0296A11DB11DD2CF1F9247
:100650000F920FB60F9211242F933F934F935F93F6
:100660006F937F938F939F93AF93BF93EF93FF937A
:100670008FE191E00E940002FF91EF91BF91AF9155
:100680009F918F917F916F915F914F913F912F91AA
:100690000F900FBE0F901F9018951F920F920FB6DC
:1006A0000F9211242F938F939F93EF93FF93E091D9
:1006B0002F01F09130018081E0913501F0913601F8
:1006C00082FD1BC09081809138018F5F8F732091D4
:1006D0003901821741F0E0913801F0E0E15EFE4F10
:1006E000958F80933801FF91EF919F918F912F917A
:1006F0000F900FBE0F901F9018958081F4CFCF926E
:10070000DF92EF92FF92109222011092210188EE67
:1007100093E0A0E0B0E08093230190932401A093A4
:100720002501B093260184E091E09093200180930D
:100730001F0185EC90E090932C0180932B0184ECB9
:1007400090E090932E0180932D0180EC90E09093A7
:10075000300180932F0181EC90E0909332018093DF
:10076000310182EC90E0909334018093330186EC68
:1007700090E09093360180933501109238011092E9
:10078000390110923A0110923B0180E197E2A0E01A
:10079000B0E08093BC019093BD01A093BE01B093E3
:1007A000BF011092C0011092C1011092C2011092BB
:1007B000C30188E99AE39093C5018093C401109224
:1007C000C6011092C7011092C8011092C9019093FE
:1007D000CB018093CA011092CC011092CD011092EE
:1007E000CE011092CF0184EE98E3AEE0BFE3809398
:1007F000D0019093D101A093D201B093D3018FEF98
:100800008093D4011092D5011092D6011092D70195
:100810001092D8011092D9011092DA011092DB01E6
:100820001092DC011092DD011092DE011092DF01C6
:100830001092E0011092E1011092E2011092E301A6
:100840001092E4011092E50181E08093E60110929C
:10085000E7011092E8011092E9011092EA0110926A
:10086000EB011092EC01C12CD12C86E9E82E83E437
:10087000F82EC092ED01D092EE01E092EF01F092DD
:10088000F0011092F1011092F2011092F301109216
:10089000F4011092F6011092F5011092F7011092F6
:1008A000F8011092F9011092FA011092FC011092D5
:1008B000FB0167E090E080E00E94870066E081E055
:1008C00090E00E948700C092ED01D092EE01E0928C
:1008D000EF01F092F0010E94BD006091ED01709176
:1008E000EE018091EF019091F0010E94060B9B01B7
:1008F000770F440B550B285E334041095109A0E5A1
:10090000B9EC0E94D60928E33AE440E050E00E94A6
:10091000A9092856354C4F4F5F4F28393A434CF1BF
:1009200088EE93E09093C5018093C4018CE291E03E
:100930009093F6018093F5018EE094E7AAEDBAE377
:100940008093F7019093F801A093F901B093FA0115
:1009500082E599E4ADE9B9E38093C6019093C701BC
:10096000A093C801B093C901FF90EF90DF90CF90A2
:10097000089588E99AE3D6CFCF93DF9300D000D0D3
:10098000CDB7DEB7789484B5826084BD84B58160CC
:1009900084BD85B5826085BD85B5816085BD80914A
:1009A0006E00816080936E001092810080918100C2
:1009B00082608093810080918100816080938100BA
:1009C000809180008160809380008091B10084607C
:1009D0008093B1008091B00081608093B0008091DD
:1009E0007A00846080937A0080917A00826080939C
:1009F0007A0080917A00816080937A0080917A00F9
:100A0000806880937A001092C100E0912F01F091EC
:100A1000300182E08083E0912B01F0912C01108263
:100A2000E0912D01F0912E0180E180831092370139
:100A3000E0913301F091340186E08083E09131014F
:100A4000F0913201808180618083E0913101F091E9
:100A50003201808188608083E0913101F091320120
:100A6000808180688083E0913101F0913201808142
:100A70008F7D80831092FC011092FB011092EC019B
:100A800020E030E048EC53E46091D0017091D10156
:100A90008091D2019091D3010E94F30B6B017C01F4
:100AA00024EB32EA41E959E30E94EE0B181644F0B8
:100AB00084EBC82E82EAD82E81E9E82E89E3F82E4D
:100AC000C092ED01D092EE01E092EF01F092F001C0
:100AD0000E94BD006091ED017091EE018091EF01E7
:100AE0009091F0010E94060B9B01770F440B550B70
:100AF000285E334041095109A0E5B9EC0E94D609AE
:100B000028E33AE440E050E00E94A9092856354C19
:100B10004F4F5F4F28393A430CF0DEC088E99AE323
:100B20009093C5018093C4018CE291E09093F6010B
:100B30008093F5018EE094E7AAEDBAE38093F70184
:100B40009093F801A093F901B093FA0182E599E43A
:100B5000ADE9B9E38093C6019093C701A093C801A2
:100B6000B093C90181E08093EB0100E010E0809137
:100B7000EA01882309F441C18091FB019091FC01B5
:100B8000892B09F03AC18091F5019091F601892BEA
:100B900009F433C120E030E040E251E46091ED011E
:100BA0007091EE018091EF019091F0010E94EE0BA7
:100BB00018160CF022C10E945D01C090C001D090B7
:100BC000C101E090C201F090C301AB01BC014C191E
:100BD0005D096E097F098091C4019091C501092EBC
:100BE000000CAA0BBB0B481759076A077B0708F4D0
:100BF00004C10E945D016093C0017093C1018093A4
:100C0000C2019093C3018090E1019090E201A09015
:100C1000E301B090E4018091DD019091DE01A091AB
:100C2000DF01B091E001881A990AAA0ABB0AC090B4
:100C3000D901D090DA01E090DB01F090DC01609105
:100C4000C4017091C501072E000C880B990B0E94FE
:100C50003E0B2091C6013091C7014091C8015091CF
:100C6000C9010E94F30B69837A838B839C83A7015C
:100C70009601C701B6010E94F30B2091F701309154
:100C8000F8014091F9015091FA010E94F30B2B01F8
:100C90003C01C501B401B7FE07C066277727CB0129
:100CA000681979098A099B090E943E0B9B01AC01D6
:100CB000C301B2010E94EE0B87FD11C020E030E0BD
:100CC000A901C701B6010E94EE0B87FD0AC020E012
:100CD00030E040E85FEB09C088EE93E021CFB7FC3D
:100CE000F6CF20E030E040E85FE369817A818B81D4
:100CF0009C810E94F30BA70196010E94230A4B01DD
:100D00005C014090ED015090EE016090EF01709019
:100D1000F00173016201F7FAF094F7F8F094A7017B
:100D200096010E948F0A87FD0CC0A3019201B401B5
:100D3000C5010E94EE0B73016201181614F06401E4
:100D40007501C092D901D092DA01E092DB01F092F4
:100D5000DC0120E030E0A901C701B6010E94EE0BE2
:100D60001816BCF420E030E040E251E4C701B601BF
:100D70000E94EE0B1816BCF080EA96E8A1E0B0E005
:100D80008093BC019093BD01A093BE01B093BF01BD
:100D900028C020E030E040E251ECC701B6010E94DB
:100DA0008F0A87FFE9CFA701960160E074E284E72C
:100DB00099E40E94940A4B015C0120E030E0A90113
:100DC0000E94EE0B18160CF0DEC0C501B4010E94A3
:100DD0000D0B6093BC017093BD018093BE01909395
:100DE000BF0120E030E0A901C701B6010E94EE0B6F
:100DF00087FDCDC081E08093E6018091EC018823DE
:100E000009F408C18091FB019091FC01892B09F440
:100E100001C10E945D01C090CC01D090CD01E09055
:100E2000CE01F090CF01AB01BC014C195D096E09F8
:100E30007F098091CA019091CB01092E000CAA0B69
:100E4000BB0B481759076A077B0708F4E3C00E94E9
:100E50005D016093CC017093CD018093CE0190939E
:100E6000CF01C090F101D090F201E090F301F09039
:100E7000F4018090D9019090DA01A090DB01B0904C
:100E8000DC01A5019401C701B6010E94220A20E0FD
:100E900030E0A9010E94EE0B87FD7BC091E09983B1
:100EA0006091CA017091CB01072E000C880B990B41
:100EB0000E943E0B2091C6013091C7014091C801AC
:100EC0005091C9010E94F30B2B013C01B9816B2F9A
:100ED000BB0F770B880B990B0E943E0B9B01AC015B
:100EE000C301B2010E94F30BA50194010E94230AE1
:100EF0004B015C018092D9019092DA01A092DB0152
:100F0000B092DC0120E030E0A9010E94EE0B87FDE9
:100F100043C081E08093E6012981213009F03EC081
:100F2000A5019401C701B6010E948F0A18160CF0A2
:100F300040C0C090D901D090DA01E090DB01F09080
:100F4000DC0120E030E0A901C701B6010E94EE0BF0
:100F500018160CF03CC120E030E040E251E4C7013B
:100F6000B6010E94EE0B18160CF43BC180EA96E81D
:100F7000A1E0B0E08093BC019093BD01A093BE01BD
:100F8000B093BF0147C0C501B401905820CF8FEF87
:100F900032CFAFEFA98384CF8FEFBCCF89818F3F52
:100FA00041F6A5019401C701B6010E94EE0B87FD31
:100FB000C0CFC092D901D092DA01E092DB01F09269
:100FC000DC011092EC0120E030E0A901C701B6017C
:100FD0000E948F0A8111ADCF8091EA018823D1F060
:100FE0001092EA018091EB01882361F01092E901EF
:100FF0008091D4018F3F31F06091E80191E0692741
:101000000E9411011092D9011092DA011092DB01B5
:101010001092DC018091EA01882309F461C00E94EA
:101020005D01C090D501D090D601E090D701F0903D
:10103000D8016C197D098E099F09C090BC01D09020
:10104000BD01E090BE01F090BF016C157D058E05DD
:101050009F0508F424C10E945D016093D50170933F
:10106000D6018093D7019093D8012091FB01309154
:10107000FC018091DD019091DE01A091DF01B09132
:10108000E001232B09F0CFC04091E1015091E20132
:101090006091E3017091E401481759076A077B07E3
:1010A00009F0C1C08091EA018823D1F01092EA01D1
:1010B0008091EB01882361F01092E9018091D401C5
:1010C0008F3F31F06091E80191E069270E941101A2
:1010D0001092D9011092DA011092DB011092DC011A
:1010E0008FE191E00E94E00102970CF4DDC00E94C4
:1010F0005D016B017C010E945D016C197D098E0907
:101100009F09683E734081059105A8F38FE191E046
:101110000E94E00102970CF0D9C060E070E0CB01C2
:101120000E943E0B20E030E040E05FE30E94F30BC2
:1011300020E030E048E453E40E94F30B0E94060BE9
:101140006B017C014AE0F7FE0DC06DE28FE191E09A
:101150000E94220266277727CB016C197D098E0930
:101160009F094AE00E948F0242E050E062E171E094
:101170008FE191E00E948201C092E101D092E201F0
:10118000E092E301F092E4018091DD019091DE01B3
:10119000A091DF01B091E001C816D906EA06FB066E
:1011A00009F482C00E94BD0091E09093EA01809111
:1011B000E901811179C09093E9018091D4018F3FB9
:1011C00009F472C06091E8010E9411016DC020E035
:1011D00030E040E251ECC701B6010E948F0A87FF60
:1011E000C5CEA701960160E074E284E799E40E940D
:1011F000940A6B017C0120E030E0A9010E94EE0B13
:1012000018166CF4C701B6010E940D0B6093BC0167
:101210007093BD018093BE019093BF01FBCEC701C7
:10122000B6019058F1CF2091E601422F022E000C1A
:10123000550B660B770B840F951FA61FB71F809366
:10124000DD019093DE01A093DF01B093E001809176
:10125000E701121614F0A1E08A27E091FF01F09156
:101260000002882369F1809106029081892B808396
:1012700080910502E091FD01F091FE019081892BA2
:101280008083B5E1BA95F1F7000080910502E09105
:10129000FD01F091FE0190818095892380838091EA
:1012A000EA01882309F41CCF0115110509F45FCC6C
:1012B0000E94EC01882309F45ACC0E94000057CC0C
:1012C00080910602908180958923D1CF8FE191E0B2
:1012D0000E94BE018983C12CD12C76018FE191E05F
:1012E0000E94E001892B19F18FE191E00E94D20167
:1012F0008C349105E1F08FE191E00E94D2018235BA
:101300009105A9F08FE191E00E94BE01E0EDE80FA8
:10131000EA30C0F4AAE0B0E0A70196010E94C80933
:101320006B017C01CE0ED11CE11CF11CD7CF898151
:101330008C3451F46FEF7FEFCB01A70196010E942F
:101340000C0AEECEE0E0E6CF61E070E080E090E0F5
:10135000F4CF052E97FB1EF400940E94C00957FDA0
:1013600007D00E94DB0907FC03D04EF40C94C0099F
:1013700050954095309521953F4F4F4F5F4F0895C1
:1013800090958095709561957F4F8F4F9F4F0895F1
:101390000E94FD09A59F900DB49F900DA49F800D04
:1013A000911D11240895B7FF0C94C8090E94C80923
:1013B000821B930B0895A1E21A2EAA1BBB1BFD01F1
:1013C0000DC0AA1FBB1FEE1FFF1FA217B307E40724
:1013D000F50720F0A21BB30BE40BF50B661F771F7C
:1013E000881F991F1A9469F760957095809590955C
:1013F0009B01AC01BD01CF010895A29FB001B39F35
:10140000C001A39F700D811D1124911DB29F700D0D
:10141000811D1124911D0895DB018F939F930E94DC
:10142000C809BF91AF91A29F800D911DA39F900D00
:10143000B29F900D11240895EE0FFF1F0590F491B7
:10144000E02D09945058BB27AA270E943A0A0C9411
:10145000B40B0E94A60B38F00E94AD0B20F039F4BB
:101460009F3F19F426F40C94A30B0EF4E095E7FBD0
:101470000C949D0BE92F0E94C50B58F3BA17620715
:1014800073078407950720F079F4A6F50C94E70B11
:101490000EF4E0950B2EBA2FA02D0B01B90190018F
:1014A0000C01CA01A0011124FF27591B99F0593FD3
:1014B00050F4503E68F11A16F040A22F232F342F1B
:1014C0004427585FF3CF469537952795A795F04069
:1014D0005395C9F77EF41F16BA0B620B730B840B7E
:1014E000BAF09150A1F0FF0FBB1F661F771F881F36
:1014F000C2F70EC0BA0F621F731F841F48F487958E
:1015000077956795B795F7959E3F08F0B0CF93957F
:10151000880F08F09927EE0F9795879508950E94F8
:10152000790B08F481E008950E94A80A0C94B40B8A
:101530000E94AD0B58F00E94A60B40F029F45F3FCB
:1015400029F00C949D0B51110C94E80B0C94A30BF7
:101550000E94C50B68F39923B1F3552391F3951BB2
:10156000550BBB27AA2762177307840738F09F5FC4
:101570005F4F220F331F441FAA1FA9F335D00E2E31
:101580003AF0E0E832D091505040E695001CCAF79E
:101590002BD0FE2F29D0660F771F881FBB1F261761
:1015A00037074807AB07B0E809F0BB0B802DBF0138
:1015B000FF2793585F4F3AF09E3F510578F00C9407
:1015C0009D0B0C94E80B5F3FE4F3983ED4F38695B3
:1015D00077956795B795F7959F5FC9F7880F911D28
:1015E0009695879597F90895E1E0660F771F881F14
:1015F000BB1F621773078407BA0720F0621B730BC7
:10160000840BBA0BEE1F88F7E09508950E940D0B2E
:101610006894B1110C94E80B08950E94CD0B88F0EA
:101620009F5798F0B92F9927B751B0F0E1F0660FA6
:10163000771F881F991F1AF0BA95C9F714C0B130E7
:1016400091F00E94E70BB1E008950C94E70B672F2F
:10165000782F8827B85F39F0B93FCCF38695779516
:101660006795B395D9F73EF49095809570956195FF
:101670007F4F8F4F9F4F0895E89409C097FB3EF42A
:1016800090958095709561957F4F8F4F9F4F9923CF
:10169000A9F0F92F96E9BB279395F695879577954D
:1016A0006795B795F111F8CFFAF4BB0F11F460FF0D
:1016B0001BC06F5F7F4F8F4F9F4F16C0882311F065
:1016C00096E911C0772321F09EE8872F762F05C079
:1016D000662371F096E8862F70E060E02AF09A9514
:1016E000660F771F881FDAF7880F9695879597F909
:1016F0000895990F0008550FAA0BE0E8FEEF1616A3
:101700001706E807F907C0F012161306E407F507F5
:1017100098F0621B730B840B950B39F40A2661F069
:10172000232B242B252B21F408950A2609F4A1400C
:10173000A6958FEF811D811D089597F99F6780E819
:1017400070E060E008959FEF80EC089500240A9413
:101750001616170618060906089500240A9412168C
:101760001306140605060895092E0394000C11F4BF
:10177000882352F0BB0F40F4BF2B11F460FF04C06C
:101780006F5F7F4F8F4F9F4F089557FD9058440FC5
:10179000551F59F05F3F71F04795880F97FB991FD0
:1017A00061F09F3F79F0879508951216130614068D
:1017B000551FF2CF4695F1DF08C01616170618061A
:1017C000991FF1CF86957105610508940895E894F5
:1017D000BB2766277727CB0197F908950E94790BDD
:1017E00008F48FEF08950E94060C0C94B40B0E942D
:1017F000A60B38F00E94AD0B20F0952311F00C944D
:101800009D0B0C94A30B11240C94E80B0E94C50BA8
:1018100070F3959FC1F3950F50E0551F629FF00143
:10182000729FBB27F00DB11D639FAA27F00DB11D5C
:10183000AA1F649F6627B00DA11D661F829F2227E5
:10184000B00DA11D621F739FB00DA11D621F839F6C
:10185000A00D611D221F749F3327A00D611D231F42
:10186000849F600D211D822F762F6A2F11249F5790
:1018700050409AF0F1F088234AF0EE0FFF1FBB1F93
:10188000661F771F881F91505040A9F79E3F510552
:1018900080F00C949D0B0C94E80B5F3FE4F3983EB2
:1018A000D4F3869577956795B795F795E7959F5FFC
:1018B000C1F7FE2B880F911D9695879597F908958E
:0418C000F894FFCFCA
:1018C4000000000022028201AF016F02E001BE01AC
:0618D400D2010D0A000024
:00000001FF
